E20934115DM0002021An20000006PMB TUNISIE                             Fabrication des pièces mécaniques         Messadine                              Zone Industrielle                                                      00004013                                                                                                                                                                           
L20934115DM0002021000001202843441     BRAHAM Salah                            LOYER                                   MESSADINE                                                                                                               4000000156984562000000000000000000000000000000000000000000000000000000000000000000000000000000000000000000000000000000000000000015698456000000141286106          
L20934115DM000202100000211603470NAC000ETS CHAGROUNI JAOUAD                    Transit                                 Msaken                                                                                                                  1000000000000000000000010716000000000000000000000000000000000000000000000000000000000000000000000000000000000000000000000000000000321570000000010394430          
L20934115DM000202100000311041344GPC000ELAMAR CONSULTING Med JABALLAH          Transit                                 Sousse                                                                                                                  1000000000000000000000007620000000000000000000000000000000000000000000000000000000000000000000000000000000000000000000000000000000228600000000007391400          
L20934115DM000202100000411253165HAM000WTI                                     SERVICE                                 SOUSSE                                                                                                                  1000000000000000000000001042463000000000000000000000000000000000000000000000000000000000000000000000000000000000000000000000000000031274000000001011189          
L20934115DM000202100000510538997QAM000AFAQ AFNOR                              Audit Qualité                           Tunis                                                                                                                   1000000000000000000000001688600000000000000000000000000000000000000000000000000000000000000000000000000000000000000000000000000000050658000000001637942          
L20934115DM000202100000610587570NAM000Cabinet MS LOUZIR                       Audit CAC                               Tunis                                                                                                                   1000000000000000000000024979300000000000000000000000000000000000000000000000000000000000000000000000000000000000000000000000000000749379000000024229921          
T20934115DM0002021                                                                                                                                                                                                                             000000156984562000000046046363000000000000000000000000000000000000000000000000000000000000000000000000000000000000000000 000000017079937000000185950988
