E50934115DM0002021An50000039PMB TUNISIE                             Fabrication des pièces mécaniques         Messadine                              Zone Industrielle                                                      00004013                                                                                                                                                                           
L50934115DM000202100000110002412BAM000AIR LIQUIDE                             HYDROGENE AZOTE                         TUNIS                                                                                                                   000000000000000000000000000000000000362063062000000003620631000000000000000000000000000000000000358442431                                                        
L50934115DM000202100000210708211QAM0002MTI                                    CONSOMMABLES                            SOUSSE                                                                                                                  000000000000000000000000000000000000136330964000000001363310000000000000000000000000000000000000134967654                                                        
L50934115DM000202100000310894688MPA000AMT                                     OUTILLAGES                              TUNIS                                                                                                                   000000000000000000000000000000000000318231441000000003182314000000000000000000000000000000000000315049127                                                        
L50934115DM000202100000411542700TAM000SOFTPRO CONSULTING                      INFORMATIQUE                            SOUSSE                                                                                                                  000000000000000000000000000000000000008903680000000000089037000000000000000000000000000000000000008814643                                                        
L50934115DM000202100000511011399GAM000EQUIPEMENT MODERNE                      CONSOMMABLES                            TUNIS                                                                                                                   000000000000000000000000000000000000002560900000000000025609000000000000000000000000000000000000002535291                                                        
L50934115DM000202100000610181923RAC000SALWA PLAST                             FOURNITURE EMBALLAGE                    SOUSSE                                                                                                                  000000000000000000000000000000000000017700000000000000265500000000000000000000000000000000000000017434500                                                        
L50934115DM000202100000711302493XAM000TUNAGAZ                                 SERVICE                                 SOUSSE                                                                                                                  000000000000000000000000000000000000002500600000000000025006000000000000000000000000000000000000002475594                                                        
L50934115DM000202100000811491421FAM000STE PLASTIFILM DISTRIBUTION             EMBALLAGE                               SOUSSE                                                                                                                  000000000000000000000000000000000000012288700000000000122887000000000000000000000000000000000000012165813                                                        
L50934115DM000202100000911496476TAM000PERFORMER TUNISIE                       SERVICE CONSOMMABLE                     TUNIS                                                                                                                   000000000000000000000000000000000000007002650000000000070027000000000000000000000000000000000000006932623                                                        
L50934115DM000202100001011164630QAC000OUSSAMA BAGGA                           FOURNITURES                             SOUSSE                                                                                                                  000000000000000000000000000000000000004200600000000000063009000000000000000000000000000000000000004137591                                                        
L50934115DM000202100001110922321TAM000ITP                                     SOUS TRAITANT                           MESSADINE                                                                                                               000000154901197000000000774505000000000000000000000000000000000000000000000000000000000000000000154126692                                                        
L50934115DM00020210000121098942BAM000 MP TECHNIC                              OUTILLAGES                              SOUSSE                                                                                                                  000000137496425000000000687481000000000000000000000000000000000000000000000000000000000000000000136808944                                                        
L50934115DM000202100001311023028VAM000TEKNIS TUNISIE                          FOURNITURE PROD                         TUNIS                                                                                                                   000000002782196000000000013911000000000000000000000000000000000000000000000000000000000000000000002768285                                                        
L50934115DM000202100001410999984YAC000ARS                                     SERVICE                                 MONASTIR                                                                                                                000000000000000000000000000000000000018813560000000000282203000000000000000000000000000000000000018531357                                                        
L50934115DM000202100001511221720NAM000EXPRESSLOGITIC                          TRANSPORT                               TUNIS                                                                                                                   000000000000000000000000000000000000008086480000000000080865000000000000000000000000000000000000008005615                                                        
L50934115DM00020210000161047155XAM000 DACSHER TUNISIA                         TRANSPORT                               TUNIS                                                                                                                   000000000000000000000000000000000000009430885000000000094309000000000000000000000000000000000000009336576                                                        
L50934115DM00020210000171050226XAM000 MEDICLEAN LAB                           CONSOMMABLE                             TUNIS                                                                                                                   000000000000000000000000000000000000018456000000000000184560000000000000000000000000000000000000018271440                                                        
L50934115DM000202100001810887498SAM000SCOOP INFORMATIQUE                      INFORMATIQUE                            SOUSSE                                                                                                                  000000000000000000000000000000000000001158544000000000011585000000000000000000000000000000000000001146959                                                        
L50934115DM000202100001910046240NAM000MM                                      TRANSPORT                               TUNIS                                                                                                                   000000000000000000000000000000000000002635456000000000026355000000000000000000000000000000000000002609101                                                        
L50934115DM000202100002010507668EAM000PROMOGARDE                              SERVICE GARDINAGE                       TUNIS                                                                                                                   000000000000000000000000000000000000003402400000000000034024000000000000000000000000000000000000003368376                                                        
L50934115DM000202100002111277709XBM000AIRCO                                   OUTILLAGES                              TUNIS                                                                                                                   000000000000000000000000000000000000006502200000000000065022000000000000000000000000000000000000006437178                                                        
L50934115DM000202100002210854338XAM000STE POLY ELECTRIC                       FOURNITURE                              SOUSSE                                                                                                                  000000000000000000000000000000000000002787390000000000027874000000000000000000000000000000000000002759516                                                        
L50934115DM000202100002310030103YAM000SOTITHER                                FOURNITURE CONSO                        TUNIS                                                                                                                   000000000000000000000000000000000000001200600000000000012006000000000000000000000000000000000000001188594                                                        
L50934115DM000202100002410035510GAM000ARI                                     FOURNITURES                             TUNIS                                                                                                                   000000000000000000000000000000000000001406760000000000014068000000000000000000000000000000000000001392692                                                        
L50934115DM000202100002510644722HAM000SAMA                                    SERVICE                                 SOUSSE                                                                                                                  000000000000000000000000000000000000003478899000000000034789000000000000000000000000000000000000003444110                                                        
L50934115DM000202100002610413468EAM000STE MEN                                 FOURNITURES                             SOUSSE                                                                                                                  000000000000000000000000000000000000004094894000000000040949000000000000000000000000000000000000004053945                                                        
L50934115DM000202100002711257909SAM000ATD ELECTRONIC                          OUTILLAGES                              TUNIS                                                                                                                   000000000000000000000000000000000000020387368000000000203873000000000000000000000000000000000000020183495                                                        
L50934115DM000202100002811665605BAM000CLIMOD PRO                              FOURNITURE                              TUNIS                                                                                                                   000000000000000000000000000000000000004185600000000000041856000000000000000000000000000000000000004143744                                                        
L50934115DM000202100002910340634XAM000STE ELSO PLAST                          FOURNITURES                             SOUSSE                                                                                                                  000000000000000000000000000000000000002013420000000000020134000000000000000000000000000000000000001993286                                                        
L50934115DM000202100003011155697KAM000STE AQUA TECHNIQUE                      SERVICES                                SOUSSE                                                                                                                  000000000000000000000000000000000000002419000000000000024190000000000000000000000000000000000000002394810                                                        
L50934115DM000202100003111028145WAM000GOLDEN PETROLEUM SERVICES               SERVICES                                SFAX                                                                                                                    000000000000000000000000000000000000003020600000000000030206000000000000000000000000000000000000002990394                                                        
L50934115DM000202100003211289532DBM000TSS                                     SERVICE                                 SOUSSE                                                                                                                  000000000000000000000000000000000000001100600000000000011006000000000000000000000000000000000000001089594                                                        
L50934115DM000202100003310534933FAC000ETS BALLI LASSAAD                       FOURNITURE                              SFAX                                                                                                                    000000000000000000000000000000000000001070600000000000016059000000000000000000000000000000000000001054541                                                        
L50934115DM000202100003411606898CAM000IPS                                     SERVICE                                 SOUSSE                                                                                                                  000000000000000000000000000000000000001270000000000000019050000000000000000000000000000000000000001250950                                                        
L50934115DM000202100003510938839CAC000HEDI TOUMI                              SERVICE                                 MESSADINE                                                                                                               000000000000000000000000000000000000002150000000000000032250000000000000000000000000000000000000002117750                                                        
L50934115DM00020210000361028564EAM000 ETS JEGHAM ET FRERES                    CONSOMMABLES                            SOUSSE                                                                                                                  000000000000000000000000000000000000001520473000000000015205000000000000000000000000000000000000001505268                                                        
L50934115DM000202100003711574559HAM000PLM EQUIPEMENTS                         EQUIPEMENT ET MATERIEL                  TUNIS                                                                                                                   000000000000000000000000000000000000207930800000000002079308000000000000000000000000000000000000205851492                                                        
L50934115DM00020210000381564649WAM000 LE REVETEMENT INDUSTRIEL                SERVICE                                 ZAGHOUAN                                                                                                                000000000000000000000000000000000000001715600000000000017156000000000000000000000000000000000000001698444                                                        
L50934115DM000202100003911335998YAM000STE CONFECTION GENERALE                 TENUE DE TRAVAIL                        SOUSSE                                                                                                                  000000000000000000000000000000000000007181100000000000071811000000000000000000000000000000000000007109289                                                        
T50934115DM0002021                                                                                                                                                                                                                            000000295179818000000001475897000001209201826000000012318043000000000000000000000000000000000001490587704                                
